:020000040800F2
:1000000000300020A928000805280008072800085B
:10001000092800080B2800080D280008000000002F
:100020000000000000000000000000000F28000891
:1000300011280008000000001328000815280008F7
:10004000F9280008F9280008F9280008F92800080C
:10005000F9280008F9280008F9280008F9280008FC
:10006000F9280008F9280008F9280008F9280008EC
:10007000F9280008F9280008F9280008F9280008DC
:10008000F9280008F9280008F9280008F9280008CC
:10009000F9280008F9280008F9280008F9280008BC
:1000A000F9280008F9280008F9280008F9280008AC
:1000B000F9280008F928000800000000F9280008C5
:1000C000F92800080000000000000000F9280008DE
:1000D00000000000F9280008F9280008F9280008A5
:1000E000F9280008F92800080000000000000000BE
:1000F0000000000000000000000000000000000000
:1001000000000000000000000000000000000000EF
:100110000000000000000000F9280008F92800088D
:1001200000000000000000000000000000000000CF
:1001300000000000000000000000000000000000BF
:10014000F9280008F928000800000000000000005D
:10015000000000000000000000000000000000009F
:10016000000000000000000000000000000000008F
:10017000000000000000000000000000000000007F
:0801800000000000F92800084E
:1001900010B5054C237833B9044B13B10448AFF3C1
:1001A00000800123237010BDDC010020000000004E
:1001B000AC4F000808B5034B1BB103490348AFF32C
:1001C000008008BD00000000E0010020AC4F0008E6
:1001D00081F0004102E000BF83F0004330B54FEAF8
:1001E00041044FEA430594EA050F08BF90EA020F65
:1001F0001FBF54EA000C55EA020C7FEA645C7FEAF8
:10020000655C00F0E2804FEA5454D4EB5555B8BF1A
:100210006D420CDD2C4480EA020281EA030382EA8B
:10022000000083EA010180EA020281EA0303362D1D
:1002300088BF30BD11F0004F4FEA01314FF4801CF0
:100240004CEA113102D0404261EB410113F0004F02
:100250004FEA03334CEA133302D0524263EB4303B9
:1002600094EA050F00F0A780A4F10104D5F1200E57
:100270000DDB02FA0EFC22FA05F2801841F10001B2
:1002800003FA0EF2801843FA05F359410EE0A5F186
:1002900020050EF1200E012A03FA0EFC28BF4CF0B7
:1002A000020C43FA05F3C01851EBE37101F000456D
:1002B00007D54FF0000EDCF1000C7EEB00006EEB7A
:1002C0000101B1F5801F1BD3B1F5001F0CD3490804
:1002D0005FEA30004FEA3C0C04F101044FEA44525B
:1002E00012F5800F80F09A80BCF1004F08BF5FEAE2
:1002F000500C50F1000041EB045141EA050130BDC2
:100300005FEA4C0C404141EB010111F4801FA4F164
:100310000104E9D191F0000F04BF01460020B1FAB9
:1003200081F308BF2033A3F10B03B3F120020CDAF1
:100330000C3208DD02F1140CC2F10C0201FA0CF0CF
:1003400021FA02F10CE002F11402D8BFC2F1200C34
:1003500001FA02F120FA0CFCDCBF41EA0C019040EA
:10036000E41AA2BF01EB0451294330BD6FEA040433
:100370001F3C1CDA0C340EDC04F11404C4F120021E
:1003800020FA04F001FA02F340EA030021FA04F330
:1003900045EA030130BDC4F10C04C4F1200220FA87
:1003A00002F001FA04F340EA0300294630BD21FAC5
:1003B00004F0294630BD94F0000F83F4801306BF8B
:1003C00081F480110134013D4EE77FEA645C18BF7F
:1003D0007FEA655C29D094EA050F08BF90EA020F16
:1003E00005D054EA000C04BF1946104630BD91EA0E
:1003F000030F1EBF0021002030BD5FEA545C05D111
:100400004000494128BF41F0004130BD14F580044F
:100410003CBF01F5801130BD01F0004545F0FE41C3
:1004200041F470014FF0000030BD7FEA645C1ABFF8
:10043000194610467FEA655C1CBF0B46024650EA2F
:10044000013406BF52EA033591EA030F41F400215B
:1004500030BD00BF90F0000F04BF0021704730B5E1
:100460004FF4806404F132044FF000054FF00001B6
:1004700050E700BF90F0000F04BF0021704730B577
:100480004FF4806404F1320410F0004548BF40424C
:100490004FF000013EE700BF42004FEAE2014FEAA1
:1004A00031014FEA02701FBF12F07F4393F07F4F7C
:1004B00081F06051704732F07F4208BF704793F07F
:1004C0007F4F04BF41F40021704730B54FF4607492
:1004D00001F0004521F000411CE700BF50EA010295
:1004E00008BF704730B54FF000050AE050EA01023E
:1004F00008BF704730B511F0004502D5404261EBAE
:1005000041014FF4806404F132045FEA915C3FF4EE
:10051000D8AE4FF003025FEADC0C18BF03325FEA8B
:10052000DC0C18BF033202EBDC02C2F1200300FA3C
:1005300003FC20FA02F001FA03FE40EA0E0021FA61
:1005400002F11444BDE600BF70B54FF0FF0C4CF44F
:10055000E06C1CEA11541DBF1CEA135594EA0C0F01
:1005600095EA0C0F00F0DEF82C4481EA030621EA3C
:100570004C5123EA4C5350EA013518BF52EA033577
:1005800041F4801143F4801338D0A0FB02CE4FF029
:100590000005E1FB02E506F00042E0FB03E54FF059
:1005A0000006E1FB03569CF0000F18BF4EF0010E51
:1005B000A4F1FF04B6F5007F64F5407404D25FEA4D
:1005C0004E0E6D4146EB060642EAC62141EA555100
:1005D0004FEAC52040EA5E504FEACE2EB4F1FD0C42
:1005E00088BFBCF5E06F1ED8BEF1004F08BF5FEAC0
:1005F000500E50F1000041EB045170BD06F0004672
:1006000046EA010140EA020081EA0301B4EB5C041E
:10061000C2BFD4EB0C0541EA045170BD41F4801116
:100620004FF0000E013C00F3AB8014F1360FDEBF3B
:10063000002001F0004170BDC4F10004203C35DA17
:100640000C341BDC04F11404C4F1200500FA05F39A
:1006500020FA04F001FA05F240EA020001F000423B
:1006600021F0004110EBD37021FA04F642EB0601B1
:100670005EEA430E08BF20EAD37070BDC4F10C04DB
:10068000C4F1200500FA04F320FA05F001FA04F29F
:1006900040EA020001F0004110EBD37041F100018B
:1006A0005EEA430E08BF20EAD37070BDC4F1200596
:1006B00000FA05F24EEA020E20FA04F301FA05F2FE
:1006C00043EA020321FA04F001F0004121FA04F2A6
:1006D00020EA020000EBD3705EEA430E08BF20EA76
:1006E000D37070BD94F0000F0FD101F000464000B0
:1006F00041EB010111F4801F08BF013CF7D041EA32
:10070000060195F0000F18BF704703F00046520035
:1007100043EB030313F4801F08BF013DF7D043EA06
:100720000603704794EA0C0F0CEA135518BF95EABC
:100730000C0F0CD050EA410618BF52EA4306D1D143
:1007400081EA030101F000414FF0000070BD50EA62
:10075000410606BF1046194652EA430619D094EAEC
:100760000C0F02D150EA013613D195EA0C0F05D1D6
:1007700052EA03361CBF104619460AD181EA03012A
:1007800001F0004141F0FE4141F470014FF00000E2
:1007900070BD41F0FE4141F4780170BD70B54FF07D
:1007A000FF0C4CF4E06C1CEA11541DBF1CEA1355FD
:1007B00094EA0C0F95EA0C0F00F0A7F8A4EB0504DF
:1007C00081EA030E52EA03354FEA013100F08880D6
:1007D0004FEA03334FF0805545EA131343EA12639F
:1007E0004FEA022245EA111545EA10654FEA002654
:1007F0000EF000419D4208BF964244F1FD0404F50D
:10080000407402D25B084FEA3202B61A65EB030568
:100810005B084FEA32024FF480104FF4002CB6EB25
:10082000020E75EB030E22BFB61A754640EA0C00A5
:100830005B084FEA3202B6EB020E75EB030E22BFE5
:10084000B61A754640EA5C005B084FEA3202B6EB26
:10085000020E75EB030E22BFB61A754640EA9C00E5
:100860005B084FEA3202B6EB020E75EB030E22BFB5
:10087000B61A754640EADC0055EA060E18D04FEA73
:10088000051545EA16754FEA06164FEAC30343EA13
:1008900052734FEAC2025FEA1C1CC0D111F4801FE0
:1008A0000BD141EA00014FF000004FF0004CB6E7D9
:1008B00011F4801F04BF01430020B4F1FD0C88BF78
:1008C000BCF5E06F3FF6AFAEB5EB030C04BFB6EB83
:1008D000020C5FEA500C50F1000041EB045170BD76
:1008E0000EF0004E4EEA113114EB5C04C2BFD4EBA3
:1008F0000C0541EA045170BD41F480114FF0000E27
:10090000013C90E645EA060E8DE60CEA135594EAA2
:100910000C0F08BF95EA0C0F3FF43BAF94EA0C0FA5
:100920000AD150EA01347FF434AF95EA0C0F7FF41A
:1009300025AF104619462CE795EA0C0F06D152EA6E
:1009400003353FF4FDAE1046194622E750EA410652
:1009500018BF52EA43067FF4C5AE50EA41047FF463
:100960000DAF52EA43057FF4EBAE12E74FEA4102C6
:10097000B2F1E04324BFB3F5001CDCF1FE5C0DD9FD
:1009800001F0004C4FEAC0024CEA5070B2F1004F47
:1009900040EB830008BF20F00100704711F0804F4A
:1009A00021D113F13872BCBF01F00040704741F40F
:1009B00080114FEA5252C2F11802C2F1200C10FA13
:1009C0000CF320FA02F018BF40F001004FEAC123F7
:1009D0004FEAD32303FA0CFC40EA0C0023FA02F39B
:1009E0004FEA4303CCE77FEA625307D150EA013371
:1009F0001EBF4FF0FE4040F44000704701F0004041
:100A000040F0FE4040F40000704700BF034613F87A
:100A1000012B002AFBD1181A013870470000000092
:100A200001F0FF01102A2BDB10F0070F08D010F89F
:100A3000013B013A8B422DD010F0070F42B3F6D1A3
:100A4000F0B441EA012141EA014122F007047FF0BC
:100A500000070023F0E80256083C85EA010586EA13
:100A6000010685FA47F5A3FA87F586FA47F6A5FA4F
:100A700087F68EB9EED1F0BC01F0FF0102F007025B
:100A800032B110F8013B013A83EA010313B1F8D106
:100A90000020704701387047002D06BF35460338E7
:100AA000073815F0010F07D1013015F4807F02BF20
:100AB000013015F4C03F0130F0BC0138704700BF71
:100AC0004FF0FF3C06E000BF4FF0010C02E000BF1A
:100AD0004FF0010C4DF804CD4FEA410C7FEA6C5CFD
:100AE0004FEA430C18BF7FEA6C5C1BD001B050EAA0
:100AF000410C0CBF52EA430C91EA030F02BF90EA8B
:100B0000020F0020704710F1000F91EA030F58BF49
:100B1000994208BF90422CBFD8176FEAE37040F0AB
:100B2000010070474FEA410C7FEA6C5C02D150EA49
:100B3000013C07D14FEA430C7FEA6C5CD6D152EA04
:100B4000033CD3D05DF8040B704700BF84461046C9
:100B500062468C461946634600E000BF01B5FFF7C8
:100B6000B7FF002848BF10F1000F01BD4DF808ED98
:100B7000FFF7F4FF0CBF012000205DF808FB00BF69
:100B80004DF808EDFFF7EAFF34BF012000205DF8C3
:100B900008FB00BF4DF808EDFFF7E0FF94BF012010
:100BA00000205DF808FB00BF4DF808EDFFF7CEFF11
:100BB00094BF012000205DF808FB00BF4DF808ED50
:100BC000FFF7C4FF34BF012000205DF808FB00BF21
:100BD0004FEA410C7FEA6C5C02D150EA013C0AD139
:100BE0004FEA430C7FEA6C5C02D152EA033C02D12B
:100BF0004FF0000070474FF0010070474FEA41028C
:100C000012F5001215D211D56FF47873B3EB62525E
:100C100012D94FEAC12343F0004343EA505311F085
:100C2000004F23FA02F018BF404270474FF0000017
:100C3000704750EA013005D111F0004008BF6FF055
:100C4000004070474FF00000704700BF10B50446E9
:100C50000E4B18784FF47A73B3FBF0F30C4A10681C
:100C6000B0FBF3F000F094F868B90F2C01D9012023
:100C70000AE0002221464FF0FF3000F055F8034B08
:100C80005C60002000E0012010BD00BF00000020DB
:100C90000800002008B5074A136843F010031360EA
:100CA000032000F02FF80020FFF7D0FF01F028FD0F
:100CB000002008BD00200240034A1168034B1B7846
:100CC0000B441360704700BF0802002000000020A2
:100CD000014B1868704700BF0802002038B5044671
:100CE000FFF7F6FF0546B4F1FF3F02D0044B1B7837
:100CF0001C44FFF7EDFF401BA042FAD338BD00BFF4
:100D000000000020074AD36823F4E0631B041B0C97
:100D1000000200F4E060184340F0BF6040F400308F
:100D2000D060704700ED00E030B4174BDB68C3F3D0
:100D30000223C3F10704042C28BF04241D1D062D23
:100D400018D9033B4FF0FF3505FA04F421EA0401FA
:100D5000994005FA03F322EA0303194300280BDB49
:100D60000901C9B200F1604000F5614080F800134C
:100D700030BC70470023E5E700F00F000901C9B25D
:100D8000024B1954F4E700BF00ED00E014ED00E061
:100D90000138B0F1807F0AD2064B5860064AF02134
:100DA00082F823100020986007221A607047012003
:100DB000704700BF10E000E000ED00E0F0B583B048
:100DC000002336E0032400E00024B4403C43023515
:100DD000584E46F82540584C2568D44304EA050689
:100DE0004F6817F4803F01D042EA0506524D2E604D
:100DF0006D6804EA05064F6817F4003F01D042EA27
:100E000005064D4D6E60AD6804EA05064F6817F49F
:100E1000801F01D042EA0506474DAE60ED682C40C8
:100E20004E6816F4001F01D042EA0504424AD4601D
:100E300001330A6832FA03F479D001249C4022403D
:100E4000F6D04D686E1E012E03D9112D01D0122D42
:100E500012D186685F000325BD4026EA0506CD68ED
:100E6000BD4035438560466826EA04064D68C5F3F3
:100E700000149C4034434460C5685F000324BC40B8
:100E8000E44325408E68BE402E43C6604D68022D67
:100E900001D0122D13D1DE08083650F826E003F0F9
:100EA00007054FEA850C0F2505FA0CF52EEA050E0D
:100EB0000D6905FA0CF545EA0E0540F8265005685F
:100EC0002C404D6805F00305BD402C4304604C6880
:100ED00014F0805FACD0194CA56945F00105A561FF
:100EE000A46904F001040194019C9D08AE1C114CFE
:100EF00054F8267003F00304A6000F24B44027EA38
:100F00000407B0F1904F3FF45FAF0D4CA0420AD000
:100F100004F58064A04208D004F58064A0423FF448
:100F200051AF052451E701244FE702244DE703B0F8
:100F3000F0BD00BF0000014000040140001002406D
:100F40000004004803689A6912F0020F01D00022E1
:100F50009A6203689A6912F0010F03D19A6942F00C
:100F600001029A61704770B4039E05686868740D49
:100F700004F4806444F07F7444F4583444F47F747F
:100F800044F0030420EA0400C1F3090141EA0241EC
:100F9000194331430143696070BC704770B5044622
:100FA0000D46164603689B6913F0100F1CD023688A
:100FB0009A6912F0200F19D1B5F1FF3FF7D0FFF772
:100FC00087FE801BA84201D8002DF0D1636C43F04E
:100FD00020036364202384F84130002384F84230E6
:100FE00084F84030012020E000201EE01022DA6169
:100FF00023682025DD612046FFF7A4FF226853689F
:1010000023F0FF7323F48B3323F4FF7323F00103E6
:101010005360636C43F00403636484F8415000231D
:1010200084F8423084F84030012070BD70B5044629
:101030000D46164623689B6913F0020F1DD13246F8
:1010400029462046FFF7AAFFC8B9B5F1FF3FF1D006
:10105000FFF73EFE801BA84201D8002DEAD1636C49
:1010600043F020036364202384F84130002384F894
:10107000423084F84030012000E0002070BD0120A3
:10108000FCE7F8B505460F4616461C462B689B69DB
:1010900037EA03030CBF01230023B34218D1B4F194
:1010A000FF3FF3D0FFF714FE069BC01AA04201D801
:1010B000002CEBD16B6C43F020036B64202385F88C
:1010C0004130002385F8423085F84030012000E0AF
:1010D0000020F8BD70B582B0044616461D46184B78
:1010E00000930023EAB2FFF73EFF079A06992046D5
:1010F000FFF79CFFE8B9012D0ED12368F6B29E627E
:10110000079B0093069B002240212046FFF7B9FF72
:10111000034678B101230DE02368320A9A62079AE8
:1011200006992046FFF782FF38B92368F6B29E621F
:10113000E6E70123184602B070BD0123FAE700BFBD
:101140000020008070B505460C4616462B689B694A
:1011500013F0200F1AD1324621462846FFF71EFF12
:10116000B0B9FFF7B5FD801BA04201D8002CEDD12E
:101170006B6C43F020036B64202385F8413000231F
:1011800085F8423085F84030012070BD0020FCE732
:101190000120FAE7002859D010B5044690F84130F4
:1011A000002B43D0242384F841302268136823F0B5
:1011B000010313606368226823F07063136122687F
:1011C000936823F400439360E368012B33D0A36852
:1011D000226843F404439360E368022B31D0226811
:1011E000536843F0007343F4004353602268D368AC
:1011F00023F40043D360236962691343A169226821
:1012000043EA0123D360E369216A22680B43136038
:101210002268136843F001031360002060642023F8
:1012200084F84130206384F8420010BD80F84030DB
:1012300001F07EFAB6E7A368226843F400439360A6
:10124000CAE723684FF400625A60C8E7012070477C
:101250002DE9F04782B0BDF82C7090F84150EDB206
:10126000202D40F0BC800A9CDCB1D7B190F8404002
:10127000012C00F0B980984691460D4604464FF087
:10128000010A80F840A0FFF723FD064600901923CD
:1012900052464FF400412046FFF7F3FE30B10123E0
:1012A0009EE04FF400734364012399E0222384F805
:1012B0004130402384F84230002363640A9A62621A
:1012C0006785636301960C9B009343464A46294613
:1012D0002046FFF7FFFE70B9638D9BB2FF2B0FD93D
:1012E000FF222285444B00934FF08073294620460D
:1012F000FFF739FE21E0002384F8403053466FE0C9
:10130000628D92B222853C4B00934FF00073D2B2B3
:1013100029462046FFF727FE0FE0628D92B2228514
:10132000002300934FF00073D2B229462046FFF706
:101330001AFE638D9BB2002B34D000960C9B0022CA
:1013400004212046FFF79DFE00284FD123685A6AEA
:10135000636A1A70636A01336362238D013B9BB237
:101360002385628D013A92B26285628D92B2002A23
:10137000DFD0002BDDD100960C9B0022802120467F
:10138000FFF77FFEA0BB638D9BB2FF2BC5D9FF2269
:101390002285002300934FF0807329462046FFF7F3
:1013A000E2FDC6E732460C992046FFF7CBFE034626
:1013B00000BB22682021D1612068426822F0FF72C0
:1013C00022F48B3222F4FF7222F00102426084F890
:1013D0004110002284F8422084F8402000E00223DB
:1013E000184602B0BDE8F0870223F9E70123F7E7CA
:1013F0000123F5E70123F3E70024008090F8413052
:10140000DBB2202B24D190F84030012B22D00123D5
:1014100080F84030242380F841300268136823F0BC
:10142000010313600268136823F480531360026899
:101430001368194311600268136843F001031360D5
:10144000202380F84130002380F840301846704750
:10145000022070470220704790F84130DBB2202B09
:1014600022D190F84030012B20D0012380F8403069
:10147000242380F841300268136823F001031360CD
:101480000268136823F4706343EA01211160026863
:10149000136843F001031360202380F841300023D8
:1014A00080F840301846704702207047022070478D
:1014B000002800F00D8370B582B00446036813F075
:1014C000010F3BD0B54B5B6803F00C03042B1ED01F
:1014D000B24B5B6803F00C03082B13D06368B3F5C1
:1014E000803F68D0002B40F0928003F1804303F5E9
:1014F00004331A6822F480321A601A6822F48022B7
:101500001A605DE0A54B5B6813F4803FE6D04FF4B2
:10151000003393FAA3F3A14B19684FF4003393FA05
:10152000A3F3B3FA83F303F01F03012202FA03F3D8
:101530000B4203D06368002B00F0CC82236813F0C9
:10154000020F00F0C680954B5B6813F00C0F00F0A3
:101550009C80924B5B6803F00C03082B00F08F809B
:101560002369002B00F0F380012292FAA2F3B3FA70
:1015700083F303F1845303F584139B001A60FFF790
:10158000A7FB0546022393FAA3F3844B19680223B1
:1015900093FAA3F3B3FA83F303F01F03012202FAD1
:1015A00003F30B4240F0C480FFF792FB401B02287C
:1015B000E8D9032095E2794A136843F48033136035
:1015C000764AD36A23F00F03A1680B43D3626368A2
:1015D000002B36D0FFF77CFB05464FF4003393FA1F
:1015E000A3F36E4B19684FF4003393FAA3F3B3FAE5
:1015F00083F303F01F03012202FA03F30B429DD190
:10160000FFF766FB401B6428E7D9032069E2B3F5C6
:10161000A02F09D0614B1A6822F480321A601A6830
:1016200022F480221A60CBE703F18043A3F53C3318
:101630001A6842F480221A601A6842F480321A60F2
:10164000BEE7FFF745FB05464FF4003393FAA3F3DB
:10165000524B19684FF4003393FAA3F3B3FA83F3B0
:1016600003F01F03012202FA03F30B423FF466AFBB
:10167000FFF72EFB401B6428E6D9032031E2474BDD
:101680005B6813F4803F7FF46BAF022393FAA3F3FC
:10169000424B1968022393FAA3F3B3FA83F303F0DE
:1016A0001F03012202FA03F30B4204D02369934281
:1016B00001D0012015E23948036823F0F80361697D
:1016C000F82292FAA2F2B2FA82F201FA02F213437B
:1016D0000360236813F0080F00F08C80A369002BCF
:1016E00060D0012191FAA1F2B2FA82F22C4B13449C
:1016F0009B001960FFF7ECFA0546022393FAA3F268
:1017000093FAA3F293FAA3F2244A516A93FAA3F349
:10171000B3FA83F303F01F03012202FA03F30B422F
:1017200068D1FFF7D5FA401B0228E6D90320D8E19B
:101730001A48036823F0F8036169F82292FAA2F2CA
:10174000B2FA82F201FA02F213430360C1E7012305
:1017500093FAA3F3B3FA83F303F1845303F58413E9
:101760009B0000221A60FFF7B3FA0546022393FAA2
:10177000A3F30A4B1968022393FAA3F3B3FA83F392
:1017800003F01F03012202FA03F30B42A1D0FFF77B
:101790009FFA401B0228E9D90320A2E10010024071
:1017A00020819010012292FAA2F2B2FA82F2BC4B8E
:1017B00013449B0000221A60FFF78AFA05460223B1
:1017C00093FAA3F293FAA3F293FAA3F2B54A516AF9
:1017D00093FAA3F3B3FA83F303F01F03012202FA8F
:1017E00003F30B4206D0FFF773FA401B0228E6D939
:1017F000032076E1236813F0040F00F0B380A94BB7
:10180000DB6913F0805F20D1A64BDA6942F0805289
:10181000DA61DB6903F080530193019B0125A24B40
:101820001B6813F4807F12D0E368012B23D073BBB5
:1018300003F1804303F504331A6A22F001021A62AD
:101840001A6A22F004021A621AE00025E7E7964AB3
:10185000136843F480731360FFF73AFA0646924B1D
:101860001B6813F4807FDFD1FFF732FA801B6428F6
:10187000F5D9032035E18B4A136A43F00103136263
:10188000E368002B41D0FFF723FA06462BE0052B37
:1018900009D0844B1A6A22F001021A621A6A22F0F5
:1018A00004021A62ECE77F4B1A6A42F004021A62E1
:1018B0001A6A42F001021A62E2E77A4B196A0223BD
:1018C00093FAA3F3B3FA83F303F01F03012202FA9E
:1018D00003F3194245D1FFF7FBF9801B41F288332E
:1018E000984200F2F980022393FAA3F293FAA3F349
:1018F000B3FA83F35B0943F00203022BDDD002232A
:1019000093FAA3F3674B596AD9E7FFF7E1F9064663
:1019100015E0644B196A022393FAA3F3B3FA83F335
:1019200003F01F03012202FA03F3194219D0FFF753
:10193000CFF9801B41F28833984200F2CF80022316
:1019400093FAA3F293FAA3F3B3FA83F35B0943F098
:101950000203022BDDD0022393FAA3F3514B596A01
:10196000D9E7B5BBE369002B00F0BA804D4A526855
:1019700002F00C02082A00F09980022B2FD04FF0C1
:10198000807393FAA3F3B3FA83F303F1845303F55B
:1019900084139B0000221A60FFF79AF904464FF067
:1019A000007393FAA3F33F4B19684FF0007393FA57
:1019B000A3F3B3FA83F303F01F03012202FA03F344
:1019C00019426BD0FFF784F9001B0228E7D90320E6
:1019D00087E0344AD36923F08053D361C2E74FF0E4
:1019E000807393FAA3F3B3FA83F303F1845303F5FB
:1019F00084139B0000221A60FFF76AF905464FF036
:101A0000007393FAA3F3274B19684FF0007393FA0E
:101A1000A3F3B3FA83F303F01F03012202FA03F3E3
:101A2000194206D0FFF754F9401B0228E7D90320DA
:101A300057E01C494B6823F47413626A206A02431E
:101A400013434B604FF0807393FAA3F3B3FA83F31D
:101A500003F1845303F584139B0001221A60FFF7FE
:101A600037F904464FF0007393FAA3F30D4B19684E
:101A70004FF0007393FAA3F3B3FA83F303F01F0359
:101A8000012202FA03F3194206D1FFF721F9001BE4
:101A90000228E7D9032024E0002022E0002020E0F3
:101AA000208190100010024000700040012B1AD0DD
:101AB0000F4B5B6803F48031226A914201D0012010
:101AC0000FE003F47013626A93420ED0012008E025
:101AD00001207047012004E0032002E0032000E021
:101AE000002002B070BD0120FBE70020F9E700BF35
:101AF0000010024010B4174B5C6804F00C03082B74
:101B000026D104F470124FF4701393FAA3F3B3FACE
:101B100083F322FA03F31049C85C0E4BDB6A03F02F
:101B20000F030F2292FAA2F2B2FA82F2D3400B44D0
:101B30001A7C14F4803F05D1084B03FB00F05DF8DC
:101B4000044B7047064BB3FBF2F300FB03F0F6E7E0
:101B50000348F4E700100240C84F000800093D00A8
:101B600000127A00002800F0C18070B50446614B75
:101B70001B6803F007038B420CD25E4A136823F004
:101B800007030B431360136803F007038B4201D074
:101B9000012070BD236813F0020F06D0564A536827
:101BA00023F0F003A068034353600D46236813F04D
:101BB000010F5AD06368012B2DD0022B40D0022296
:101BC00092FAA2F24C4A1068022292FAA2F2B2FAF7
:101BD00082F202F01F02012101FA02F2104200F02B
:101BE000878045494A6822F0030213434B60FFF7A0
:101BF0006FF80646404B5B6803F00C036268B3EB7A
:101C0000820F32D0FFF764F8801B41F2883398428C
:101C1000F0D90320BDE74FF4003292FAA2F2364A1F
:101C200010684FF4003292FAA2F2B2FA82F202F095
:101C30001F02012101FA02F20242D2D10120A8E7DB
:101C40004FF0007292FAA2F22B4A10684FF0007225
:101C500092FAA2F2B2FA82F202F01F02012101FA14
:101C600002F21042BDD1012093E7224B1B6803F022
:101C70000703AB420CD91F4A136823F007032B4319
:101C80001360136803F00703AB4201D0012080E723
:101C9000236813F0040F06D0174A536823F4E06357
:101CA000E1680B435360236813F0080F07D0124A12
:101CB000536823F46053216943EAC1035360FFF77B
:101CC00019FF0D4B5B6803F0F003F02292FAA2F2C9
:101CD000B2FA82F2D340094AD35CD840084B18606C
:101CE000084B1868FEF7B2FF002052E7012070474A
:101CF00001204EE70020024000100240E84F00089B
:101D00000800002004000020014B1868704700BF45
:101D10000800002008B5FFF7F7FF074B5B6803F4E6
:101D2000E0634FF4E06292FAA2F2B2FA82F2D34098
:101D3000024AD35CD84008BD00100240F84F0008AA
:101D400008B5FFF7E1FF074B5B6803F460534FF4FE
:101D5000605292FAA2F2B2FA82F2D340024AD35C03
:101D6000D84008BD00100240F84F0008F0B583B01D
:101D70000446036813F4803F44D05F4BDB6913F0E3
:101D8000805F6ED15C4BDA6942F08052DA61DB69C8
:101D900003F080530193019B0125584B1B6813F4FA
:101DA000807F60D0544B1B6A13F4407321D062686B
:101DB00002F440729A421CD04F48016A21F44076E6
:101DC0004FF4803393FAA3F2B2FA82F24C4F3A44C2
:101DD00092004FF0010CC2F800C093FAA3F3B3FADB
:101DE00083F33B449B0000221A60066211F0010F4E
:101DF0004DD1414A136A23F4407361680B43136267
:101E0000002D6FD1236813F0010F06D03A4A136BEF
:101E100023F00303A1680B431363236813F0200F1F
:101E200006D0354A136B23F01003E1680B431363AC
:101E3000236813F0800F06D02F4AD36A23F4F87377
:101E400021690B43D362236813F4805F51D02A4A7F
:101E5000136B23F4807361690B431363002003B099
:101E6000F0BD002599E7254A136843F48073136099
:101E7000FEF72EFF0646214B1B6813F4807F91D19D
:101E8000FEF726FF801B6428F5D90320E7E7FEF75D
:101E90001FFF064614E0184B196A022393FAA3F3B6
:101EA000B3FA83F303F01F03012202FA03F30B4298
:101EB0009FD1FEF70DFF801B41F28833984216D860
:101EC000022393FAA3F293FAA3F3B3FA83F35B0921
:101ED00043F00203022BDED0022393FAA3F3064B56
:101EE000596ADAE7D36923F08053D3618AE7032084
:101EF000B5E70020B3E700BF0010024000700040CB
:101F00000081901010B5044683680269134342694A
:101F10001343C2691343016808686C4A02401343C3
:101F20000B602268536823F44053E1680B4353600D
:101F3000A269236A1A4321688B6823F43063134330
:101F40008B602368624A934215D0624A934228D03C
:101F500002F58062934220D01023E269B2F5004F6F
:101F600021D0082B00F2AB80DFE803F06C818BA955
:101F700096A9A9A9A000584B1B6B03F00303032BE0
:101F800009D8DFE803F00204060C0023E5E7042388
:101F9000E3E70823E1E71023DFE70023DDE702237F
:101FA000DBE70023D9E7082B49D8DFE803F0051E5B
:101FB0002948344848483F00FFF7ACFE62685308A0
:101FC00003EB4003B3FBF2F39BB20020A3F110013B
:101FD0004FF6EF72914275D89AB222F00F02C3F316
:101FE000420313432268D3603DE0FFF7A9FE626815
:101FF000530803EB4003B3FBF2F39BB20020E5E789
:102000006268530803F5740303F51053B3FBF2F34E
:102010009BB20020DAE7FFF76DFD6268530803EB1F
:102020004003B3FBF2F39BB20020CFE76268530892
:1020300003F58033B3FBF2F39BB20020C6E7012027
:102040000023C3E7FFF766FE626800EB5203B3FBB1
:10205000F2F39BB20020A3F110014FF6EF72914210
:1020600032D82268D36000232366636610BDFFF771
:1020700067FE626800EB5203B3FBF2F39BB20020F1
:10208000E9E76268530803F5F40303F59053B3FBE3
:10209000F2F39BB20020DEE7FFF72CFD626800EB55
:1020A0005203B3FBF2F39BB20020D4E762685308FB
:1020B00003F50043B3FBF2F39BB20020CBE7012012
:1020C0000023C8E70120CEE70120CCE7F369FFEF4A
:1020D000003801400044004000100240436A13F001
:1020E000010F06D00268536823F40033816A0B4362
:1020F0005360436A13F0020F06D00268536823F45A
:102100008033C16A0B435360436A13F0040F06D057
:102110000268536823F48023016B0B435360436AC6
:1021200013F0080F06D00268536823F40043416B94
:102130000B435360436A13F0100F06D00268936894
:1021400023F48053816B0B439360436A13F0200F99
:1021500006D00268936823F40053C16B0B4393606D
:10216000436A13F0400F0AD00268536823F48013C7
:10217000016C0B435360036CB3F5801F0BD0436AB3
:1021800013F0800F06D00268536823F40023816C9B
:102190000B43536070470268536823F4C003416CDB
:1021A0000B435360EBE72DE9F04104460F4616461A
:1021B0009846069D2368DB6937EA03030CBF0123B9
:1021C0000023B3423AD1B5F1FF3FF3D0FEF780FDD3
:1021D000A0EB0800A8421FD8F5B123681A6812F0D6
:1021E000040FE7D0DA6912F4006FE3D04FF4006215
:1021F0001A622268136823F4D0731360226893680C
:1022000023F00103936020236367A367E367002340
:1022100084F87030032012E02268136823F4D0732E
:1022200013602268936823F001039360202363679F
:10223000A367002384F87030032000E00020BDE88D
:10224000F0812DE9F04182B01E46436F202B55D11D
:1022500004460D469046002955D0002A55D090F8E6
:102260007030012B53D0012380F870300023C367F6
:1022700021234367FEF72CFD0746A4F85080A4F8FD
:102280005280A368B3F5805F02D04FF0000813E0DE
:10229000236913B14FF000080EE0A84600250BE0BB
:1022A00038F8023B2268C3F308031385B4F85230B0
:1022B000013B9BB2A4F85230B4F852309BB273B1D8
:1022C00000963B46002280212046FFF76CFF00BBB2
:1022D000002DE5D0236815F8012B1A85E6E7009656
:1022E0003B46002240212046FFF75DFF034690B9A0
:1022F00020226267002284F8702000E00223184642
:1023000002B0BDE8F0810123F9E70123F7E70223DA
:10231000F5E70323F3E70323F1E730B583B0044681
:102320000023C367FEF7D4FC054623681B6813F03F
:10233000080F0CD123681B6813F0040F15D120235C
:102340006367A367002084F8700003B030BD6FF0AE
:102350007E430093034600224FF400112046FFF70E
:1023600022FF0028E6D00320EFE76FF07E430093C2
:102370002B4600224FF480012046FFF714FF00286F
:10238000DDD00320E1E768B310B50446436F03B323
:10239000242363672268136823F001031360204637
:1023A000FFF7B0FD012813D0636ABBB922685368F8
:1023B00023F4904353602268936823F02A039360C8
:1023C0002268136843F0010313602046FFF7A5FF5E
:1023D00010BD80F8703000F0E1F9D9E72046FFF732
:1023E0007DFEE3E70120704784B00F4B5A6942F449
:1023F00080025A615A6902F480020192019A5A6974
:1024000042F400325A615A6902F400320292029A8E
:102410005A6942F480225A615B6903F48023039372
:10242000039B04B0704700BF0010024038B50D4C4C
:102430000D4B23600D4B63600025A5600123E36015
:1024400025616561A561E56125622046FEF7A2FE72
:1024500029462046FEF7D2FF29462046FEF7FCFF1C
:1024600038BD00BF0C020020005400400E090020BF
:1024700008B50948094B03604FF416534360002325
:102480008360C36003610C2242618361C3610362A4
:102490004362FFF778FF08BD580200200044004067
:1024A00010B514464FF47A7392B20248FFF7C9FE92
:1024B000204610BD5802002070B596B02026324646
:1024C00000210DA800F044FA002407940894099410
:1024D0000A940B9401940294039404940594069432
:1024E00002250C95012310931023119313954FF49B
:1024F000601315930CA8FEF7DBFF0F2307930895D5
:1025000009944FF480630A930B94294607A8FFF7B8
:1025100029FB0196049401A8FFF728FC16B070BDB2
:102520002DE9F04F91B0FEF7B5FBFFF7C5FFFFF7C0
:102530005BFFFFF77BFFFFF79BFF684800F06CFE37
:102540000EE0674800F068FE1EE0664800F064FE9A
:102550009DF83030432B1FD04FF4FA60FEF7BEFBDE
:102560004FF6FF730293102301930CAB00930123EA
:10257000002264215C48FEF76BFE9DF83030432B4F
:10258000DFD05A4800F048FE9DF83130012BDCD0F6
:10259000574800F041FEDBE79DF832309DF83300EC
:1025A00000EB03209DF834309DF8356006EB0326E0
:1025B00036B29DF836309DF8379009EB03290FFAB3
:1025C00089F99DF838309DF839A00AEB032A0FFAF3
:1025D0008AFA9DF83A309DF83B7007EB03273FB22B
:1025E0009DF83C309DF83D8008EB03280FFA88F8F1
:1025F0009DF83E309DF83F4004EB032424B200B226
:10260000FDF738FF00223B4BFEF7C8F8FEF7AEF9A6
:1026100005463046FDF72EFF0022364BFEF7BEF88A
:10262000FEF7A4F906464846FDF724FF0022314B89
:10263000FEF7B4F8FEF79AF981465046FDF71AFF07
:1026400000222C4BFEF7AAF8FEF790F98246384696
:10265000FDF710FF0022284BFEF7A0F8FEF786F9E1
:1026600007464046FDF706FF0022224BFEF796F88C
:10267000FEF77CF980462046FDF7FCFE00221D4B4C
:10268000FEF78CF8FEF772F983462846FDF704FF43
:1026900004460D465846FDF7FFFECDE90A015046B7
:1026A000FDF7FAFECDE908014846FDF7F5FECDE954
:1026B00006014046FDF7F0FECDE904013846FDF77E
:1026C000EBFECDE902013046FDF7E6FECDE9000163
:1026D00022462B46094800F09FFD3DE700500008C8
:1026E0000C500008385000080C0200202050000850
:1026F0004C5000080000594000002440645000087D
:1027000082B00A4B9A6942F001029A619A6902F01A
:1027100001020092009ADA6942F08052DA61DB69C4
:1027200003F080530193019B02B0704700100240F8
:1027300010B588B000230393049305930693079381
:102740000268134B9A4201D008B010BD114C636966
:1027500043F480236361636903F480230193019B45
:10276000C0230393122304930123059303230693A9
:102770000423079303A90848FEF720FBE36943F409
:102780000013E361E36903F400130293029BDBE7A8
:1027900000540040001002400004004800B589B019
:1027A0000023039304930593069307930268144B45
:1027B0009A4202D009B05DF804FB03F5E633DA690A
:1027C00042F40032DA61DA6902F400320192019ACD
:1027D0005A6942F400325A615B6903F40033029390
:1027E000029B48F2040303930223049303230693FA
:1027F0000723079303A94FF09040FEF7DFFAD9E7CC
:10280000004400407047FEE7FEE7FEE7FEE7704742
:102810007047704708B5FEF74FFA08BD70B50D4612
:102820001646002404E0AFF300802870013401351F
:10283000B442F8DB304670BD08B503460B4A126857
:1028400042B10A4A106803446A46934206D8074ACE
:10285000136008BD054A06491160F2E700F04EF822
:102860000C2303604FF0FF30F3E700BFF8010020B6
:10287000E00200204FF0FF3070474FF400534B60F0
:10288000002070470120704700207047054BD3F8A7
:10289000882042F47002C3F888204FF000629A60EA
:1028A000704700BF00ED00E0DFF834D0002103E006
:1028B0000C4B5B58435004310B480C4B42189A4266
:1028C000F6D30B4A02E0002342F8043B094B9A423C
:1028D000F9D3FFF7DBFF00F017F8FFF721FEFEE763
:1028E00000300020A053000800000020DC01002080
:1028F000DC010020DC020020FEE70000014B18682C
:10290000704700BF0C00002070B50D4E0D4CA41B8D
:10291000A4100025A54209D10B4E0C4C02F046FB39
:10292000A41BA4100025A54205D170BD56F8253082
:1029300098470135EEE756F8253098470135F2E71C
:102940009853000898530008985300089C530008B7
:1029500002440346934200D1704703F8011BF9E794
:102960002DE9FF4755EC104B0D9FDDF830A0002DF1
:102970000E4691461946B8BF22462B4627F020073F
:10298000BBBF05F100431D4600232D23B8BF1446ED
:10299000462F0B7004D0452F00D10136022100E0F4
:1029A000032103AB019302AB00933246534645EC3F
:1029B000104B00F0D5FC472F804602D119F0010FD3
:1029C00026D0462F08EB060911D198F80030302B9D
:1029D0000AD10022002320462946FEF7C7F818B97D
:1029E000C6F10106CAF80060DAF800309944002206
:1029F000002320462946FEF7B9F838B93022039B58
:102A00004B4505D2591C03911A70F8E7CDF80C908C
:102A1000039B0E9AA3EB08034046136004B0BDE885
:102A2000F087F7B500290446BABF49422D232B236E
:102A3000092904F8022B437020DD0DF107031F461E
:102A40000A2691FBF6F506FB15113031092D03F826
:102A5000011C03F1FF32294609DC3031023B02F848
:102A6000011CBB42224604D3101A03B0F0BD13462A
:102A7000E7E713F8012B04F8012BF2E730231944A0
:102A80008370021DC170EFE72DE9F04F8DB00C4649
:102A9000DDF8588016461F46054601F0E3FA036844
:102AA00004931846FDF7B2FF00230A93D8F80030CC
:102AB0000590073323F0070303F1080294F818A0E8
:102AC000D4F800B0C8F80020D3E90023C4E91223E9
:102AD000D4E9128929F000430793CDF818804FF00C
:102AE000FF32A74BDDE90601FEF772F870BB4FF02D
:102AF000FF32A34BDDE90601FEF74CF830BB0022A4
:102B0000002340464946FEF73BF810B12D2384F8D8
:102B100043309C4A9C4BBAF1470F8CBF9046984675
:102B200003232BF00402236122604FF00009009779
:102B300033460BAA2146284600F0E6F9013040F062
:102B40008D804FF0FF300DB0BDE8F08F42464B4610
:102B500040464946FEF73CF810B18C4A8C4BDAE708
:102B600061684B1C4BF480620AA83ED10623636067
:102B70000023CDE9020309AB009349EC108B0DF162
:102B800023032260CDF804A061682846FFF7E8FE21
:102B90000AF0DF03472B804609D1099BD81C02DBD2
:102BA0006268934247DDAAF1020A5FFA8AFABAF133
:102BB000650F099924D80139524604F15000099152
:102BC000FFF72FFF0A9A1318012A8146236102DCBE
:102BD0002268D10701D5013323619DF82330002BF2
:102BE000A5D02D2384F84330A1E7BAF1670F00F098
:102BF0007781BAF1470FBBD10029B9D10123B6E7DC
:102C0000BAF1660F19D1002963680CDD216113B98F
:102C10002268D20702D501330B442361099BA365C7
:102C20004FF00009D9E713B92268D00701D5023364
:102C3000F3E70123F1E74FF0670ADDE90932934238
:102C400005DB22682361D107E8D50133E5E7002BD6
:102C5000D4BFC3F1020301231344DEE723685A05FE
:102C600007D42369424631462846B84701302BD164
:102C700067E7BAF1650F40F2DC8000220023D4E957
:102C80001201FDF773FF002833D00123414A31467A
:102C90002846B84701303FF454AFDDE909239A4292
:102CA00002DB2368D8070FD5DDE904233146284627
:102CB000B84701303FF445AF4FF0000804F11A095E
:102CC0000A9B013B434509DC23689B0700F1038114
:102CD000E0680B9B9842B8BF184634E701234A4688
:102CE00031462846B84701303FF42BAF08F10108C0
:102CF000E6E7099B002B2BDC0123264A31462846B8
:102D0000B84701303FF41DAF099B23B90A9B13B9A3
:102D10002368D907D8D5DDE9042331462846B847CA
:102D200001303FF40EAF4FF0000904F11A0A099B7D
:102D30005B424B4501DC0A9B94E701235246314636
:102D40002846B84701303FF4FCAE09F10109EEE72F
:102D50000A9AA36D9A42A8BF1A46002A914607DD37
:102D60001346314642462846B84701303FF4E9AEA3
:102D700004F11A034FF0000B29EAE979069315E0F4
:102D8000FFFFEF7FDC500008D8500008E450000837
:102D9000E0500008E85000080123069A3146284612
:102DA000B84701303FF4CDAE0BF1010BD4F858A079
:102DB000AAEB09035B45EFDCDDE909239A42D04425
:102DC00015DB2368DA0712D40A9B0999A3EB0A02E0
:102DD000A3EB010A9245A8BF9246BAF1000F0EDCA0
:102DE0004FF000082AEAEA7A04F11A0919E0DDE94D
:102DF000042331462846B8470130E5D1A1E65346C1
:102E0000424631462846B8470130E9D199E60123C8
:102E10004A4631462846B84701303FF492AE08F1A1
:102E20000108DDE909239B1AA3EB0A034345EEDC05
:102E30004AE70A9A012A01DCDB073AD50123424618
:102E400031462846B84701303FF47BAEDDE9042324
:102E500031462846B847013008F101083FF471AE09
:102E60000A9B002203F1FF3AD4E912010023FDF787
:102E70007DFEC8B95346424631462846B847013020
:102E80000ED15EE60123524631462846B84701304E
:102E90003FF457AE08F101080A9B013B4345F1DCC2
:102EA0004B4604F15002DEE64FF0000804F11A0A26
:102EB000F2E70123DFE701234A4631462846B847B7
:102EC00001303FF43EAE08F10108E3680B9A9B1A0B
:102ED0004345F0DCFCE64FF0000804F11909F4E783
:102EE00000293FF48BAE0023CDE9020309AB009328
:102EF00049EC108B2260CDF804A00DF12303284685
:102F0000FFF72EFD804648E62DE9F04791461F4623
:102F10008A680B69DDF820809342B8BF1346C9F870
:102F2000003091F8432006460C4612B10133C9F82F
:102F300000302368990642BFD9F800300233C9F83F
:102F40000030256815F0060507D104F1190AE36879
:102F5000D9F800209B1AAB4228DC94F84330226851
:102F6000003318BF012392062DD404F143023946E1
:102F70003046C047013020D02368E568D9F80020EA
:102F800003F00603042B08BFAD1AA36822690CBF27
:102F900025EAE57500259342C4BF9B1AED184FF052
:102FA00000091A344D451AD1002008E00123524689
:102FB00039463046C047013003D14FF0FF30BDE8FD
:102FC000F0870135C3E7E1185A1C302081F843002F
:102FD000224494F8451082F843100233C5E70123D8
:102FE000224639463046C0470130E6D009F1010992
:102FF000D8E700002DE9F04301F1430C0C46097EAF
:1030000085B06E291746064698460C9A00F0B380A4
:1030100022D8632936D00AD8002900F0B98058296F
:1030200000F0838004F1420584F8421032E0642904
:1030300001D06929F6D120681368050603F104015F
:103040002AD51B681160002B03DA2D225B4284F81D
:1030500043206F480A2239E0732900F09D8008D888
:103060006F2920D07029DDD1236843F0200323602D
:1030700003E0752917D07829D4D1782384F8453016
:10308000644855E01368191D1B68116004F142057E
:1030900084F8423001238CE01B68116010F0400F6F
:1030A00018BF1BB2CFE713682568181D10602806EB
:1030B00001D51B6802E06806FBD51B8854486F29C0
:1030C00014BF0A220822002184F843106568A56015
:1030D000002DC0F29580216821F004012160002BB1
:1030E0003DD1002D40F08E806546082A0BD1236823
:1030F000DB0708D5236962689A42DEBF302305F8F2
:10310000013C05F1FF35ACEB05032361CDF80080F0
:103110003B4603AA21463046FFF7F6FE01304DD16B
:103120004FF0FF3005B0BDE8F083394884F8451012
:10313000136821681D1D1B6815600A060BD5CA0798
:1031400044BF41F0200121601BB9226822F0200217
:1031500022601022B7E74D0648BF9BB2EFE76546F5
:10316000B3FBF2F102FB1133C35C05F8013D0B46E2
:103170000029F5D1B9E7136825686169181D106049
:1031800028061B6801D5196002E06A06FBD5198084
:10319000002323616546B9E71368191D11601D6896
:1031A000626800212846FDF73BFC08B1401B6060C7
:1031B00063682361002384F84330A7E723692A4624
:1031C00039463046C0470130AAD023689B0713D444
:1031D000E068039B9842B8BF1846A3E701234A461C
:1031E00039463046C04701309AD00135E368039A2A
:1031F0009B1AAB42F2DCEBE7002504F11909F5E775
:10320000002BACD1037884F8423004F142056CE71E
:10321000EA500008FB5000080FB40A4B13B51C68B5
:1032200024B1A36913B9204600F092FE05AB049ABD
:10323000A1680193204601F0F1FA02B0BDE8104008
:1032400004B070470C0000202DE9F74F03690C69AA
:10325000A3428046C0F28280013C01F114074FEA8C
:10326000840C00F1140657F8245056F8240006EB9D
:103270000C03013507EB0C090193B0FBF5F595B391
:103280004FF0000A3846B646D34650F8042B93B2A6
:1032900005FB03A34FEA134A9BB2ABEB0303120CEB
:1032A000DEF800B005FB02A213FA8BF34FEA124AD4
:1032B0001FFA82FBDEF80020CBEB124202EB234226
:1032C0009BB243EA024381454FEA224B4EF8043B4E
:1032D000DBD256F80C3033B9019B043B9E421A46B0
:1032E00030D3C8F81040404601F0F2F8002825DB42
:1032F000013530464FF0000C57F8042BD0F800E0B1
:1033000093B2ACEB0303120C13FA8EF3C2EB1E4222
:1033100002EB23429BB243EA0243B9454FEA224CF7
:1033200040F8043BE8D256F8242006EB84032AB97F
:10333000043B9E421A460BD3C8F81040284603B0FF
:10334000BDE8F08F1268043B002ACAD1013CC5E7F2
:103350001268043B002AEFD1013CEAE70020EEE7C7
:103360002DE9F04F57EC106B97B0456A0691044673
:103370000B921293DDF88080CDE900673DB91020F3
:1033800000F07EFE6062C0E901550560C560636AB9
:10339000196851B15A684A60012393408B602046F6
:1033A00000F0B5FE636A00221A603B1EBBBF23F02B
:1033B0000043019300230122ACBFC8F80030C8F8D5
:1033C0000020AF4BDDF8048033EA080314D1129AD1
:1033D00042F20F731360009B23B9C8F31300002857
:1033E00000F04285219BDFF8ACB2002B00F0448551
:1033F0000BF1030300F03EBDDDE90067002200236E
:1034000030463946FDF7B2FB814668B1129A012376
:103410001360219B002B00F024859A4B219A03F125
:10342000FF3B136000F028BD14AA15A947EC106BF0
:10343000204601F0C4F8C8F30A550490002D7CD052
:10344000C7F3130343F07F5BB2464BF4401BA5F276
:10345000FF35CDF84C9000228B4B50465946FCF777
:10346000BBFE81A3D3E90023FDF76EF880A3D3E967
:103470000023FCF7B3FE064628460F46FCF7FAFF8A
:103480007DA3D3E90023FDF75FF802460B463046E3
:103490003946FCF7A3FE06460F46FDF7AFFB0022B8
:1034A0008246002330463946FDF76AFB48B1504654
:1034B000FCF7E0FF32463B46FDF758FB08B90AF13E
:1034C000FF3ABAF1160F59D8704901EBCA01DDE98C
:1034D0000023D1E90001FDF771FB002850D00AF16B
:1034E000FF3A00230F93149B5D1BB5F1010849BF00
:1034F000C5F10103002305934FF0000858BF059361
:10350000BAF1000F3EDB0023D044CDF838A007937A
:10351000069B092B00F29080052BC4BF043B069349
:10352000069BA3F10203CCBF00250125032B00F26B
:103530008F80DFE803F07D7F3171DDE914531D4496
:1035400005F23240202813DDC0F14000009B08FA4C
:1035500000F805F2124023FA00F048EA0000FCF7F8
:1035600079FF01238246A1F1F87B013D139372E7B5
:10357000009BC0F1200003FA00F0F0E70123B1E75F
:103580000F90B0E7059BA3EB0A030593CAF1000374
:10359000079300230E93BBE701230A930B9B002B99
:1035A00059DD02939946666A00227260042202F194
:1035B00014009842716853D9204600F074FD636A84
:1035C0003060B9F10E0FD3F800B000F2E680002DA4
:1035D00000F0E3809DED007BBAF1000F8DED107BD4
:1035E00074DD2A4A0AF00F0302EBC30393ED007B5C
:1035F0004FEA2A16F0068DED087B65D5244BDDE9F0
:103600001001D3E90823FDF7C9F8CDE9000106F060
:103610000F0603251E4F4CE001230A930B9B5344D6
:1036200003F1010902934B46012BB8BF0123BAE70E
:103630000023B2E70023F0E70125002306930A9553
:103640004FF0FF3302939946002212230B92AAE710
:1036500001230A93F4E70123029399461A46F5E7FA
:10366000013171605200A2E761436F63A787D23FC7
:10367000B3C8608B288AC63FFB799F501344D33F61
:103680000000F07FE95000080000F83FA851000852
:103690008051000815510008F10708D5DDE908013F
:1036A000D7E90023FCF750FFCDE90801013576107A
:1036B0000837002EF0D1DDE90823DDE90001FDF730
:1036C0006DF8CDE900011AE00225A3E700F0A08023
:1036D000CAF100069F4BA04F06F00F0203EBC20396
:1036E000D3E90023DDE91001FCF72EFFCDE900014D
:1036F000361100230225002E7FD1002BE1D10F9B34
:10370000002B00F08780DDE900670022934B3046F4
:103710003946FDF735FA00287CD0B9F1000F79D091
:10372000029B002B35DD0AF1FF3308933946002256
:103730008B4B3046FCF708FFCDE90001029F0135B5
:103740002846FCF797FEDDE90023FCF7FDFE00228A
:10375000844BFCF743FD0546A1F15076002F5DD167
:103760000022814BDDE90001FCF736FD2A46334695
:10377000CDE90001FDF722FA002840F088822A46B0
:1037800006F10043DDE90001FDF7FAF9002840F0F9
:103790007C82DDE91023CDE90023159B002BC0F2CC
:1037A0005081BAF10E0F00F34C816A4B03EBCA0350
:1037B00093ED007B0B9B002B8DED027B80F2D8807C
:1037C000B9F1000F00F3D48040F05E820022664B16
:1037D00051EC170BFCF7B8FEDDE90023FDF7E4F927
:1037E0004F464E46002840F0348231230BF101054C
:1037F0008BF800300AF1010A2FE2F20705D5D7E96C
:103800000023FCF7A1FE013501237610083772E78B
:10381000022574E7CDF820A04F4691E74D4B03EB0E
:10382000C70353E902010A9B002B47D002460B460F
:1038300000204E49FCF7B2FF2A463346FCF7CCFC89
:10384000CDE90C015D46DDE90001FDF7D7F906463B
:10385000FCF710FE02460B46DDE90001FCF7BCFC5C
:10386000303605F8016BDDE90C23CDE90001FDF7E9
:1038700087F9002863D1DDE9002300203749FCF7F0
:10388000ABFCDDE90C23FDF77BF9002840F0B780A5
:10389000A5EB0B039F427FF77CAF0022304BDDE9A5
:1038A0000C01FCF751FE0022CDE90C012C4BDDE9A7
:1038B0000001FCF749FECDE90001C4E72A46334682
:1038C000FCF742FECDE90C010BEB07055E46DDE996
:1038D0000001FDF793F90746FCF7CCFD30370246AF
:1038E0000B46DDE90001FCF777FC06F8017BAE42F0
:1038F000CDE900014FF0000226D11C4BDDE90C019F
:10390000FCF76CFC02460B46DDE90001FDF756F9B9
:10391000002874D1DDE90C2300201449FCF75CFC7D
:1039200002460B46DDE90001FDF72AF900283FF4C5
:1039300030AF15F8013C302B05F1FF3202D0DDF835
:1039400020A04AE01546F4E7054BFCF7FDFDCDE964
:103950000001BCE7A8510008805100080000F03FBA
:103960000000244000001C40000014400000E03F24
:10397000DDE900675D46DDE9022330463946FCF7A4
:103980000DFFFDF73BF98046FCF774FDDDE90223EE
:10399000FCF7DAFD02460B463046394608F13006A0
:1039A000FCF71AFC05F8016BA5EB0B06B1450246C6
:1039B0000B4639D1FCF712FCDDE9022306460F461F
:1039C000FDF7FCF8C8B9DDE9022330463946FDF7BA
:1039D000CDF810B118F0010F0FD10499204600F076
:1039E00096FB0023129A2B700AF101031360219BAE
:1039F000002B00F041821D603EE2CDF820A015F8BA
:103A0000012C392A05F1FF3308D19B450AD1089BC7
:103A10000133089330238BF800305B461A7801326B
:103A20001A708CE71D46EAE700229B4BFCF78CFDE1
:103A30000022002306460F46FDF798F800289AD08A
:103A4000CBE70A9A002A00F08B80069A012A6EDCE6
:103A5000139A002A67D003F23343079F059D059A06
:103A600001211A4420460592984400F0F0FB0646D6
:103A7000002D0CDDB8F1000F09DD4545059A2B46F8
:103A8000A8BF4346D21A0592ED1AA8EB0308079B7C
:103A9000EBB10A9B002B67D08FB131463A462046E6
:103AA00000F074FC049A01460646204600F0D8FB5C
:103AB00004990890204600F02AFB089B0493079B7A
:103AC000DA1B04D00499204600F060FC0490012128
:103AD000204600F0BCFB0E9B0746002B00F0D08177
:103AE0001A460146204600F051FC069B012B074672
:103AF00040DC009B002B39D1019BC3F31303002B47
:103B000036D1019B23F000431B0D1B052BB1059BF8
:103B10000133059308F10108012307930E9B002B45
:103B20002AD1012030E0149BC3F1360395E7079BAF
:103B300009F1FF37BB42BFBF079B0797FA1A0E9BDD
:103B4000BBBF9B180E93DF1B0027B9F1000FB5BF59
:103B5000059B059DA3EB09054B46B8BF00237EE7F7
:103B6000079F059D0A9E83E7079AABE70023D4E7EA
:103B7000009BD2E7002307933B6907EB8303186997
:103B800000F017FBC0F12000404410F01F0047D0A8
:103B9000C0F12003042B3BDD059BC0F11C00034456
:103BA000059305448044059B002B05DD1A460499C6
:103BB000204600F039FC0490B8F1000F05DD3946CD
:103BC0004246204600F030FC07460F9B53B339466F
:103BD000049800F07DFC002824DA00230A220499CE
:103BE000204600F0ABFA0A9B04900AF1FF3A002B42
:103BF00000F04D81002331460A22204600F09EFA53
:103C0000029B002B06464FDC069B022B4CDD11E08D
:103C1000C9D0059A1C331A4405921D449844C2E742
:103C20000346F6E7B9F1000F38DC069B022B35DDC1
:103C3000CDF80890029B63B939460522204600F072
:103C40007DFA01460746049800F042FC00283FF741
:103C5000CCAD0B9B5D466FEA030A4FF00009394675
:103C6000204600F054FA002E3FF4B7AEB9F1000F31
:103C700005D0B14503D04946204600F048FA314608
:103C8000204600F044FAA8E600273E46E1E7DDF8CA
:103C900020A03E46A9E500BF000024400A9BCDF8C5
:103CA0000890002B00F0FA80002D05DD31462A46F1
:103CB000204600F0B9FB0646079B002B4CD07168EC
:103CC000204600F0F0F9326902320546920006F112
:103CD0000C010C3000F0DCF901222946204600F0EE
:103CE000A3FB009BCDF814B003F00103B14607938A
:103CF000064639460498FFF7A7FA4946054600F1FB
:103D00003008049800F0E4FB324600903946204623
:103D100000F0F8FBC368024603BB01460890049814
:103D200000F0D6FB089A034611462046089300F09F
:103D3000EEF9089BA3B9069A92B9079A82B9B8F12D
:103D4000390F29D0009B002B01DD05F13108059BBF
:103D50005D1C83F8008082E73046C2E70123E3E779
:103D6000009A002A04DB25D1069A1ABB079A0ABBDF
:103D7000002BECDD01220499204600F055FB39466A
:103D8000049000F0A5FB002803DCE0D118F0010F3F
:103D9000DDD0B8F1390FD8D1059B059A5D1C3923C8
:103DA000137015F8013C392B05F1FF324FD0013368
:103DB000137054E7059A002B02F1010506DDB8F1F6
:103DC000390FE9D008F10108059BC2E7029A05F80E
:103DD000018CA5EB0B03934221D000230A22049906
:103DE000204600F0ABF9B14504904FF000034FF0CE
:103DF0000A024946204605D100F0A0F98146064650
:103E0000059576E700F09AF93146814600230A22AB
:103E1000204600F093F90646F2E74FF00009012230
:103E20000499204600F000FB3946049000F050FB56
:103E30000028B6DC02D118F0010FB2D115F8013C10
:103E4000302B05F1FF327FF40AAF1546F6E79345B4
:103E500005D131230AF1010A8BF80030FFE615463F
:103E60009FE7DFF864B007E0219BDFF860B01BB18B
:103E70000BF10803219A1360584617B0BDE8F08F84
:103E8000069B012B7FF735AE0E9B079349E6029BFD
:103E9000002B03DC069B022B3FF7CCAE5D46394678
:103EA0000498FFF7D1F900F1300805F8018B029A68
:103EB000A5EB0B039A42B0DD00230A2204992046A9
:103EC00000F03CF90490EAE7E85000080C510008C3
:103ED000002310B50446C0E9003383608181436646
:103EE000C281C0E904338361194608225C30FEF7C1
:103EF0002FFD054B6362054BA362054BE362054B47
:103F00002462236310BD00BF694A00088B4A000881
:103F1000C34A0008E74A0008014900F085B800BF1D
:103F2000C14D000870B54A1E682555430E4605F17F
:103F3000740100F0EFFB044640B10021C0E9001617
:103F40000C30A06005F16802FEF702FD204670BD4E
:103F5000836910B5044633BBC0E912330365124BC5
:103F6000124A1B688262984204BF0123836100F0F9
:103F70001FF86060204600F01BF8A060204600F0AB
:103F800017F80022E06004216068FFF7A1FF01221A
:103F90000921A068FFF79CFF02221221E068FFF7C9
:103FA00097FF0123A36110BDD4500008193F0008FA
:103FB000F8B51B4B1E68B369074613B93046FFF7C7
:103FC000C7FF4836D6E90134013B03D5336833B126
:103FD0003668F7E7B4F90C506DB16834F4E70421A2
:103FE0003846FFF79FFF30600028F1D10C233B607B
:103FF00004462046F8BD0B4B6566C4E90055A56034
:10400000C4E90335C4E905550822294604F15C00DA
:10401000FEF79EFCC4E90D55C4E91255E9E700BF5F
:10402000D45000080100FFFF2DE9F843804689467F
:1040300000F14804002614B93046BDE8F883D4E9FD
:104040000175013F01D52468F5E7AB89012B07D93C
:10405000B5F90E30013303D029464046C847064320
:104060006835EEE7044B1B68186A044B002808BF4C
:104070001846F030704700BF0C0000207000002090
:10408000024B0146186800F045BB00BF0C00002041
:1040900010B5431E0A44914200D110BD11F8014BE6
:1040A00003F8014FF7E770B5456A04460E463DB97F
:1040B0001020FFF7E5FF6062C0E901550560C560AB
:1040C000656AEB6883B1636ADB6853F82600B8B9A8
:1040D000012101FA06F56A1D9200204600F0BEFAA1
:1040E00060B1C0E901650EE021220421204600F004
:1040F000B5FA636AE860DB68002BE4D1002070BD8C
:10410000026843F826200023C0E90333F7E770B5BF
:10411000446A06460D463CB91020FFF7B1FF7062B5
:10412000C0E901440460C4603DB1736A6A68DB6839
:1041300053F82210296043F8225070BD2DE9F04158
:104140000D691F4606460C4601F1140C0023DCF8ED
:10415000000081B202FB01710F0C000C02FB007029
:1041600089B2013301EB00419D424FEA10474CF800
:10417000041BECDCD7B1A368AB4212DC61683046AB
:104180000131FFF790FF2269023204F10C018046F1
:1041900092000C30FFF77CFF21463046FFF7B7FF57
:1041A000444604EB850301355F6125612046BDE887
:1041B000F081020C12040346B2B90304102013F07C
:1041C0007F4F04BF1B02083013F0704F04BF1B0168
:1041D000043013F0404F04BF9B000230002B06DB7D
:1041E0005B0003D5013070470020E8E720207047CE
:1041F000036813F0070201460BD0DA0723D49807AF
:1042000049BF5B089B0801200B605CBF0B6002206C
:10421000704798B2A8B91B0C102013F0FF0F04BF11
:104220001B0A08301A0704BF1B0904309A0704BF91
:104230009B080230DA0702D45B0806D001300B601D
:1042400070471046E9E7002070472020704710B5FE
:104250000C460121FFF727FF01224461026110BDD6
:104260002DE9F74F14460A6923699A42B8BF0B46F5
:104270008846BCBFA0461C46D8F81070D4F81090F1
:10428000D8F80830D8F8041007EB0906B342B8BFD5
:104290000131FFF708FF00F1140505EB860E2B46F0
:1042A0000022734516D304F1140208F1140102EB45
:1042B000890301EB87070093009B019293420CD87E
:1042C000002E03DD5EF8043D002B5DD0066103B0D7
:1042D000BDE8F08F43F8042BE3E7B2F800B0BBF180
:1042E000000F23D08946AC464FF0000859F8044B24
:1042F000DCF800A0A3B21FFA8AFA0BFB03A34FEA73
:10430000144ADCF8004043444FEA14480BFB0A848B
:1043100004EB1344E2469BB243EA04434F454FEAA1
:1043200014484AF8043B2BD8CCF80480019BB3F81E
:1043300002A00432BAF1000F20D02B688946A846AB
:104340004FF0000BB9F800C0B8F802400AFB0C446B
:104350005C44C4469BB243EA04434CF8043B59F81E
:10436000043BB8F804B01B0C0AFB03B303EB144383
:104370004F454FEA134B05D8C8F8043004359BE786
:10438000D446B3E7E046DDE7013E99E72DE9F8437F
:10439000154612F0030206460F4607D0013A214C9B
:1043A000002354F82220FFF7C9FE0746AD1035D090
:1043B000746A3CB91020FFF763FE7062C0E90144E3
:1043C0000460C460D6F82480D8F808404CB940F2A4
:1043D00071213046FFF73BFF0023C8F80800044670
:1043E00003604FF00008EB070AD5394622463046F5
:1043F000FFF736FF394681463046FFF788FE4F46C5
:104400006D100BD0206838B9224621463046FFF7A0
:1044100027FF2060C0F800800446E4E73846BDE886
:10442000F88300BF705200082DE9F0470C464FEAB0
:10443000621A236949680AEB0309A368074616460E
:1044400009F10105AB4232DB3846FFF72CFE0023B1
:10445000804600F114011A4653452BDB20692AEAF5
:10446000EA7A04F1140316F01F0201EB8A0103EB50
:10447000800C25D0C2F1200E00201E688A4696408E
:1044800030434AF8040B53F8040B9C4520FA0EF015
:1044900014D8486008B109F10205013D3846C8F852
:1044A00010502146FFF733FE4046BDE8F08701314A
:1044B0005B00C7E741F823200133CDE75146DCE735
:1044C000043953F8042B41F8042F9C45F9D8E4E74C
:1044D00003690A699B1A30B50CD19200143014316B
:1044E0008418114454F8045D51F8042D954203D00A
:1044F00005D30123184630BDA042F3D3FAE74FF0AD
:10450000FF33F7E72DE9F0470D46074611462846E9
:104510001446FFF7DDFF061E08D131463846FFF787
:10452000C2FD0123C0E90436BDE8F087A4BF2346DD
:104530002C4638466168A6BF1D4600260126FFF7B7
:10454000B2FD2B69C660266905F1140904F1140255
:1045500002EB860709EB830800F114054FF0000E0B
:1045600052F804AB59F8044B1EFA8AF1A3B2C91AE7
:10457000230CC3EB1A4303EB214389B24FEA234ECA
:10458000C84541EA0343944645F8043BE8D8BC4596
:1045900004D355F8043D83B10661C5E75CF8041BFC
:1045A0001EFA81F31A1402EB11429BB243EA024352
:1045B0004FEA224E45F8043BE9E7013EE9E72DE9E1
:1045C000F7430E46012159EC108B1546FFF76BFDA2
:1045D000C9F30A540746C9F3130334BB0193B8F176
:1045E000000327D002A840F8083DFFF701FE00991C
:1045F000F0B1019AC0F1200302FA03F30B43C24069
:104600007B610192019BBB61002B14BF0221012140
:104610003961C4B1A4F2334404443460C0F13500BC
:104620002860384603B0BDE8F08343F48013D5E733
:104630007961E7E701A8FFF7DBFD019B7B610121C1
:1046400039612030E5E707EB8103A0F232403060AA
:104650001869FFF7AEFDC0EB4110E1E738B502FB8A
:1046600001F4214600F056F8054618B12246002113
:10467000FEF76EF9284638BD38B50546002945D005
:1046800051F8043C0C1F002BB8BFE41800F04AFCA2
:104690001F4A1368104633B9636014602846BDE8AA
:1046A000384000F040BCA3420CD921686218934204
:1046B00004BF1A685B68636004BF5218226004601C
:1046C000ECE713465A680AB1A242FAD91968581899
:1046D000A0420BD120680144581882421960DDD1F4
:1046E000106852685A6001441960D7E702D90C2358
:1046F0002B60D3E7206821188A4204BF11685268F2
:10470000626004BF091821605C60C7E738BD00BF64
:104710000002002070B5CD1C25F0030508350C2DD6
:1047200038BF0C25002D064601DBA94203D90C2316
:104730003360002070BD00F0F5FB214A146821466B
:1047400091B9204C23681BB9304600F07DF92060F8
:104750002946304600F078F9431C24D10C233360FD
:10476000304600F0E0FBE4E70B685B1B18D40B2B32
:104770000FD90B60CD50CC18304600F0D4FB04F1BB
:104780000B00231D20F00700C31AD3D05A42E25079
:10479000D0E78C424B6816BF636013600C46EBE7B2
:1047A0000C464968CCE7C41C24F00304A04205D0A1
:1047B000211A304600F048F90130CFD02560DBE700
:1047C00000020020040200209368013B002B10B47B
:1047D000936008DA9469A34201DB0A2903D15DF8EA
:1047E000044B00F085B91368581C10601970084616
:1047F0005DF8044B7047F8B506460F461446D518C9
:10480000AC4201D1002007E03A4614F8011B3046C3
:10481000FFF7DAFF431CF3D1F8BD00002DE9F04F9C
:104820000C469DB017461D46064618B183690BB964
:10483000FFF78EFB7C4B9C4258D17468A389180704
:104840005ED52369002B5BD00023099320238DF8CC
:10485000293030238DF82A3003954FF0010BB846EC
:10486000454615F8013B0BB1252B54D1B8EB070A8F
:104870000BD053463A4621463046FFF7BCFF013085
:1048800000F0C280099B5344099398F80030002B34
:1048900000F0BA8000234FF0FF32CDE905230493E6
:1048A00007938DF853301A93A846052218F8011B78
:1048B0005E48FCF7B5F8049B78BBD90644BF2022BC
:1048C0008DF853201A0744BF2B228DF853202A78E5
:1048D0002A2A2AD0079AA84600200A25414611F81C
:1048E000013B303B092B69D960B324E0504B9C421B
:1048F00001D1B468A2E74F4B9C4208BFF4689DE722
:104900002146304600F058F900289DD04FF0FF3086
:104910001DB0BDE8F08FA846A2E7444A801A0BFA02
:1049200000F0184304904546BEE7039A111D126833
:104930000391002A01DB079204E0524243F0020394
:104940000792049398F800302E2B0ED198F801307E
:104950002A2B38D1039B1A1D1B680392002BB8BF6A
:104960004FF0FF3308F102080593334D98F800101B
:1049700003222846FCF754F840B14023401B03FAB9
:1049800000F0049B034308F10108049398F8001019
:104990002A488DF82810062208F10107FCF740F894
:1049A000002837D0264B1BBB039B073323F007039C
:1049B00008330393099B4B44099350E705FB0232EC
:1049C000012088468AE7002308F10108059319466B
:1049D0000A25404610F8012B303A092A03D9002B4A
:1049E000C3D00591C1E705FB012101238046F0E713
:1049F00003AB00932246134B04A93046FEF744F85C
:104A0000B0F1FF3F8146D5D1A3895B063FF57EAF6C
:104A100009987DE703AB009322460A4B04A9304670
:104A2000FEF7E8FAECE700BF3C5100087C520008B2
:104A30005C5100081C510008825200088652000890
:104A4000892A0008F747000838B5064C00230546B8
:104A500008462360FDF7F0FE431C02D1236803B132
:104A60002B6038BDD802002010B50C46B1F90E10ED
:104A700000F05AFA0028ABBF636DA3891B1823F41A
:104A80008053ACBF6365A38110BD2DE9F0411F4683
:104A90008B89DB0505460C46164605D50223002208
:104AA000B1F90E1000F0B6F9A389B4F90E1023F491
:104AB0008053A38132463B462846BDE8F04100F0D2
:104AC00069B810B50C46B1F90E1000F0A3F9431CFB
:104AD000A38915BF606523F4805343F48053A381F9
:104AE00018BFA38110BDB1F90E1000F0D3B80000BB
:104AF000F8B50E461446054618B183690BB9FFF7A1
:104B000027FA214B9C422AD16C68A369A360A38930
:104B10001A072ED5236963B323692068C01A636915
:104B2000F6B28342374604DC2146284600F048F9B5
:104B300028BBA368013BA36023685A1C22601E7037
:104B400063690130834204D0A389DB0719D50A2E9B
:104B500017D12146284600F033F990B10FE00B4BF6
:104B60009C4201D1AC68D0E7094B9C4208BFEC687D
:104B7000CBE72146284600F01FF80028CCD04FF0A4
:104B8000FF373846F8BD00BF3C5100085C510008B3
:104B90001C51000838B5074C05460846114600224E
:104BA00022601A46FDF77CFC431C02D1236803B146
:104BB0002B6038BDD8020020324B70B51D68064608
:104BC0000C4625B1AB6913B92846FFF7C1F92E4B46
:104BD0009C420FD16C68B4F90C309AB215072CD4F2
:104BE000D00611D40922326043F04003A3814FF074
:104BF000FF303EE0254B9C4201D1AC68EBE7244BF3
:104C00009C4208BFEC68E6E7510712D5616B41B1E1
:104C100004F14403994202D03046FFF72DFD0023F2
:104C20006363A38923F02403A381002363602369C2
:104C30002360A38943F00803A38123694BB9A389A7
:104C400003F42073B3F5007F03D02146304600F013
:104C500017F9A28912F001030CD00023A360636945
:104C60005B42A361236953B9B4F90C3013F080009F
:104C7000BAD170BD920758BF6369A360F2E7002004
:104C8000F7E700BF0C0000203C5100085C51000811
:104C90001C51000838B5064C002305460846236021
:104CA000FDF7E8FD431C02D1236803B12B6038BD3A
:104CB000D80200208A892DE9F041054610070C46EC
:104CC00058D44B68002B05DC0B6C002B02DC002059
:104CD000BDE8F081E66A002EF9D0002312F480527C
:104CE0002F68216A2B6032D0606DA3895A0705D5E1
:104CF0006368C01A636B0BB1236CC01A00230246B1
:104D0000E66A216A2846B047431CA38906D1296870
:104D10001D2948D8294ACA40D60744D500226260D6
:104D2000D9042269226004D5421C01D12B6803B941
:104D30006065616B2F600029C9D004F1440399427A
:104D400002D02846FFF798FC00206063C0E70123EB
:104D50002846B047411CC8D12B68002BC5D01D2B5D
:104D600001D0162B01D12F60B1E7A38943F0400396
:104D7000A381ADE70F69002FA9D093070E6808BF84
:104D80004B690F6018BF0023A6EB07088B60B8F1D2
:104D9000000F9CDD43463A46216AA66A2846B04782
:104DA000002806DCA38943F04003A3814FF0FF30C5
:104DB0008EE70744A8EB0008E9E700BF01004020A8
:104DC00038B50B6905460C46DBB118B183690BB9E0
:104DD000FFF7BEF80C4B9C4209D16C68B4F90C305B
:104DE0007BB121462846BDE83840FFF763BF074B3B
:104DF0009C4201D1AC68F1E7054B9C4208BFEC68CE
:104E0000ECE7002038BD00BF3C5100085C510008B1
:104E10001C51000838B5074C0546084611460022CB
:104E200022601A46FDF730FD431C02D1236803B10E
:104E30002B6038BDD802002070B50E46B1F90E10B7
:104E4000002996B014461D4607DA00232B60B3896B
:104E50001A0610D44FF480630EE06A4600F084F81E
:104E60000028F2DB019A02F47042A2F500535A4284
:104E70005A412A60EEE740230020236016B070BD3F
:104E80008B8973B59D0706460C4607D504F1470389
:104E9000236023610123636102B070BD01AB6A46E8
:104EA000FFF7CAFF009905463046FFF733FC48B9C3
:104EB000B4F90C309A05EFD423F0030343F0020356
:104EC000A381E3E70D4BB362A389206043F0800325
:104ED000A381009B6361019B20615BB1B4F90E105B
:104EE000304600F053F828B1A38923F0030343F0C0
:104EF0000103A381A3891D43A581CDE7193F0008C4
:104F000082B001B901A942B14BB113780B6012789C
:104F1000101C18BF012002B070471046FBE76FF06D
:104F20000100F8E77047704738B5074C054608465A
:104F30001146002222601A46FDF770FC431C02D184
:104F4000236803B12B6038BDD802002049B1FF2A85
:104F500085BF8A2303600A704FF0FF3098BF01209D
:104F6000704708467047000038B5074C00230546D7
:104F7000084611462360FDF780FC431C02D12368DC
:104F800003B12B6038BD00BFD802002038B5064CF5
:104F90000023054608462360FDF774FC431C02D13C
:104FA000236803B12B6038BDD8020020F8B500BFDC
:104FB000F8BC08BC9E467047F8B500BFF8BC08BCFA
:044FC0009E46704752
:104FC80002030405060708090A0B0C0D0E0F101042
:104FD8000102030405060708090A0B0C0D0E0F1041
:104FE8000000000000000000010203040607080991
:104FF8000000000001020304496E6974204F4B0A47
:105008000D00000053656E736F7220697320466F40
:10501800756E64212000000053656E736F722069FD
:1050280073204E6F7420466F756E64212000000057
:1050380053656E736F7220697320526561647921BC
:10504800200A0D0053656E736F72206973204E6FCE
:105058007420526561647921200A0D00544D503A3C
:1050680025312E31662027432C20484D443A2531DE
:105078002E31662025252C2065434F323A25312EC6
:1050880031662070706D2C204941513A25312E31FE
:10509800662C2045746F683A25312E316620707071
:1050A8006D2C2054564F433A25312E3166206D67BA
:1050B8002F6D332C206C6F67526364613A25312E53
:1050C8003166206F686D200A0D0000001000002076
:1050D800494E4600696E66004E414E006E616E0094
:1050E8003000303132333435363738394142434471
:1050F80045460030313233343536373839616263EA
:1051080064656600496E66696E697479004E614E21
:105118000000000000000000000000000000000087
:105128000000000000000000000000000000000077
:105138000000000000000000000000000000000067
:105148000000000000000000000000000000000057
:105158000000000000000000000000000000000047
:105168000000000000000000000000000000000037
:1051780000000000000000000080E03779C34143D0
:10518800176E05B5B5B89346F5F93FE9034F384DA5
:10519800321D30F94877825A3CBF737FDD4F157551
:1051A800000000000000F03F000000000000244064
:1051B80000000000000059400000000000408F403F
:1051C800000000000088C34000000000006AF840AA
:1051D8000000000080842E4100000000D0126341CE
:1051E8000000000084D797410000000065CDCD4144
:1051F800000000205FA00242000000E87648374225
:10520800000000A2941A6D42000040E59C30A242C2
:105218000000901EC4BCD64200003426F56B0C4337
:105228000080E03779C3414300A0D88557347643DE
:1052380000C84E676DC1AB43003D9160E458E1433F
:10524800408CB5781DAF154450EFE2D6E41A4B44B4
:1052580092D54D06CFF08044F64AE1C7022DB544F9
:10526800B49DD9794378EA4405000000190000008C
:105278007D000000232D302B2000686C4C006566F3
:1052880067454647004300504F534958002E0000D9
:1052980020202020202020202028282828282020DE
:1052A80020202020202020202020202020202020F6
:1052B800881010101010101010101010101010106E
:1052C800040404040404040404041010101010104E
:1052D8001041414141414101010101010101010127
:1052E800010101010101010101010110101010105B
:1052F80010424242424242020202020202020202F8
:10530800020202020202020202020210101010201F
:105318000000000000000000000000000000000085
:105328000000000000000000000000000000000075
:105338000000000000000000000000000000000065
:105348000000000000000000000000000000000055
:105358000000000000000000000000000000000045
:105368000000000000000000000000000000000035
:105378000000000000000000000000000000000025
:105388000000000000000000000000000000000015
:04539800B501000853
:04539C009101000873
:1053A000010000001000000000127A001000002030
:1053B000000000003C5100085C5100081C5100082E
:1053C00000000000000000000000000000000000DD
:1053D00000000000000000000000000000000000CD
:1053E00000000000000000000000000000000000BD
:1053F00000000000000000000000000000000000AD
:10540000000000000000000000000000000000009C
:105410004300000000000000000000000000000049
:10542000000000000000000000000000000000007C
:105430004300000000000000000000000000000029
:10544000000000000000000000000000000000005C
:105450004300000000000000000000000000000009
:10546000000000000000000000000000000000003C
:1054700043000000000000000000000000000000E9
:10548000000000000000000000000000000000001C
:1054900043000000000000000000000000000000C9
:1054A00000000000000000000000000000000000FC
:1054B00043000000000000000000000000000000A9
:1054C00000000000000000000000000000000000DC
:1054D0004300000000000000000000000000000089
:1054E00000000000000000000000000000000000BC
:1054F0004D4F0008014F00080000000097520008BF
:10550000955200088152000881520008815200081B
:10551000815200088152000881520008815200081F
:105520008152000881520008FFFFFFFFFFFFFFFFCD
:10553000FFFFFFFFFFFF0000010041534349490007
:10554000000000000000000000000000000000005B
:1055500000000000000000000000415343494900E2
:10556000000000000000000000000000000000003B
:0C5570000000000000000000000000002F
:04000005080028A91E
:00000001FF
